{
  "contractName": "AlquileresPisos",
  "abi": [
    {
      "inputs": [],
      "stateMutability": "nonpayable",
      "type": "constructor"
    },
    {
      "anonymous": false,
      "inputs": [
        {
          "indexed": false,
          "internalType": "uint256",
          "name": "id",
          "type": "uint256"
        },
        {
          "indexed": false,
          "internalType": "address",
          "name": "inquilino",
          "type": "address"
        }
      ],
      "name": "PisoAlquilado",
      "type": "event"
    },
    {
      "anonymous": false,
      "inputs": [
        {
          "indexed": false,
          "internalType": "uint256",
          "name": "id",
          "type": "uint256"
        },
        {
          "indexed": false,
          "internalType": "address",
          "name": "inquilino",
          "type": "address"
        }
      ],
      "name": "PisoDevuelto",
      "type": "event"
    },
    {
      "inputs": [],
      "name": "owner",
      "outputs": [
        {
          "internalType": "address",
          "name": "",
          "type": "address"
        }
      ],
      "stateMutability": "view",
      "type": "function",
      "constant": true
    },
    {
      "inputs": [
        {
          "internalType": "uint256",
          "name": "",
          "type": "uint256"
        }
      ],
      "name": "pisos",
      "outputs": [
        {
          "internalType": "string",
          "name": "direccion",
          "type": "string"
        },
        {
          "internalType": "enum AlquileresPisos.Estado",
          "name": "estado",
          "type": "uint8"
        },
        {
          "internalType": "address",
          "name": "inquilino",
          "type": "address"
        }
      ],
      "stateMutability": "view",
      "type": "function",
      "constant": true
    },
    {
      "inputs": [
        {
          "internalType": "uint256",
          "name": "id",
          "type": "uint256"
        }
      ],
      "name": "alquilarPiso",
      "outputs": [],
      "stateMutability": "nonpayable",
      "type": "function"
    },
    {
      "inputs": [
        {
          "internalType": "uint256",
          "name": "id",
          "type": "uint256"
        }
      ],
      "name": "devolverPiso",
      "outputs": [],
      "stateMutability": "nonpayable",
      "type": "function"
    },
    {
      "inputs": [
        {
          "internalType": "uint256",
          "name": "id",
          "type": "uint256"
        }
      ],
      "name": "consultarPiso",
      "outputs": [
        {
          "internalType": "string",
          "name": "",
          "type": "string"
        },
        {
          "internalType": "enum AlquileresPisos.Estado",
          "name": "",
          "type": "uint8"
        },
        {
          "internalType": "address",
          "name": "",
          "type": "address"
        }
      ],
      "stateMutability": "view",
      "type": "function",
      "constant": true
    }
  ],
  "bytecode": "0x608060405234801562000010575f80fd5b50335f806101000a81548173ffffffffffffffffffffffffffffffffffffffff021916908373ffffffffffffffffffffffffffffffffffffffff16021790555060405180606001604052806040518060400160405280600f81526020017f4176646120416d6572696361203435000000000000000000000000000000000081525081526020015f6001811115620000ac57620000ab620003b2565b5b81526020015f73ffffffffffffffffffffffffffffffffffffffff1681525060015f8081526020019081526020015f205f820151815f019081620000f1919062000643565b506020820151816001015f6101000a81548160ff021916908360018111156200011f576200011e620003b2565b5b021790555060408201518160010160016101000a81548173ffffffffffffffffffffffffffffffffffffffff021916908373ffffffffffffffffffffffffffffffffffffffff16021790555090505060405180606001604052806040518060400160405280600e81526020017f41746f6368612c2038372c20344200000000000000000000000000000000000081525081526020015f6001811115620001ca57620001c9620003b2565b5b81526020015f73ffffffffffffffffffffffffffffffffffffffff1681525060015f600181526020019081526020015f205f820151815f01908162000210919062000643565b506020820151816001015f6101000a81548160ff021916908360018111156200023e576200023d620003b2565b5b021790555060408201518160010160016101000a81548173ffffffffffffffffffffffffffffffffffffffff021916908373ffffffffffffffffffffffffffffffffffffffff16021790555090505060405180606001604052806040518060400160405280600e81526020017f432f204c756e612c20393820374100000000000000000000000000000000000081525081526020015f6001811115620002e957620002e8620003b2565b5b81526020015f73ffffffffffffffffffffffffffffffffffffffff1681525060015f600281526020019081526020015f205f820151815f0190816200032f919062000643565b506020820151816001015f6101000a81548160ff021916908360018111156200035d576200035c620003b2565b5b021790555060408201518160010160016101000a81548173ffffffffffffffffffffffffffffffffffffffff021916908373ffffffffffffffffffffffffffffffffffffffff16021790555090505062000727565b7f4e487b71000000000000000000000000000000000000000000000000000000005f52602160045260245ffd5b5f81519050919050565b7f4e487b71000000000000000000000000000000000000000000000000000000005f52604160045260245ffd5b7f4e487b71000000000000000000000000000000000000000000000000000000005f52602260045260245ffd5b5f60028204905060018216806200045b57607f821691505b60208210810362000471576200047062000416565b5b50919050565b5f819050815f5260205f209050919050565b5f6020601f8301049050919050565b5f82821b905092915050565b5f60088302620004d57fffffffffffffffffffffffffffffffffffffffffffffffffffffffffffffffff8262000498565b620004e1868362000498565b95508019841693508086168417925050509392505050565b5f819050919050565b5f819050919050565b5f6200052b620005256200051f84620004f9565b62000502565b620004f9565b9050919050565b5f819050919050565b62000546836200050b565b6200055e620005558262000532565b848454620004a4565b825550505050565b5f90565b6200057462000566565b620005818184846200053b565b505050565b5b81811015620005a8576200059c5f826200056a565b60018101905062000587565b5050565b601f821115620005f757620005c18162000477565b620005cc8462000489565b81016020851015620005dc578190505b620005f4620005eb8562000489565b83018262000586565b50505b505050565b5f82821c905092915050565b5f620006195f1984600802620005fc565b1980831691505092915050565b5f62000633838362000608565b9150826002028217905092915050565b6200064e82620003df565b67ffffffffffffffff8111156200066a5762000669620003e9565b5b62000676825462000443565b62000683828285620005ac565b5f60209050601f831160018114620006b9575f8415620006a4578287015190505b620006b0858262000626565b8655506200071f565b601f198416620006c98662000477565b5f5b82811015620006f257848901518255600182019150602085019450602081019050620006cb565b868310156200071257848901516200070e601f89168262000608565b8355505b6001600288020188555050505b505050505050565b610a9480620007355f395ff3fe608060405234801561000f575f80fd5b5060043610610055575f3560e01c80633abc06a91461005957806385bd7bb11461008b5780638d63fdd0146100a75780638da5cb5b146100c3578063f193b168146100e1575b5f80fd5b610073600480360381019061006e919061068b565b610113565b604051610082939291906107f2565b60405180910390f35b6100a560048036038101906100a0919061068b565b6101eb565b005b6100c160048036038101906100bc919061068b565b6103dd565b005b6100cb61052d565b6040516100d8919061082e565b60405180910390f35b6100fb60048036038101906100f6919061068b565b610550565b60405161010a939291906107f2565b60405180910390f35b6001602052805f5260405f205f91509050805f01805461013290610874565b80601f016020809104026020016040519081016040528092919081815260200182805461015e90610874565b80156101a95780601f10610180576101008083540402835291602001916101a9565b820191905f5260205f20905b81548152906001019060200180831161018c57829003601f168201915b505050505090806001015f9054906101000a900460ff16908060010160019054906101000a900473ffffffffffffffffffffffffffffffffffffffff16905083565b6001808111156101fe576101fd610740565b5b60015f8381526020019081526020015f206001015f9054906101000a900460ff16600181111561023157610230610740565b5b14610271576040517f08c379a0000000000000000000000000000000000000000000000000000000008152600401610268906108ee565b60405180910390fd5b3373ffffffffffffffffffffffffffffffffffffffff1660015f8381526020019081526020015f2060010160019054906101000a900473ffffffffffffffffffffffffffffffffffffffff1673ffffffffffffffffffffffffffffffffffffffff1614610313576040517f08c379a000000000000000000000000000000000000000000000000000000000815260040161030a9061097c565b60405180910390fd5b5f60015f8381526020019081526020015f206001015f6101000a81548160ff0219169083600181111561034957610348610740565b5b02179055505f60015f8381526020019081526020015f2060010160016101000a81548173ffffffffffffffffffffffffffffffffffffffff021916908373ffffffffffffffffffffffffffffffffffffffff1602179055507f2ad06104c0e4cf44df63b1eadc93f8689549ca15483570591e1c0ec4192e7e1281336040516103d29291906109a9565b60405180910390a150565b5f60018111156103f0576103ef610740565b5b60015f8381526020019081526020015f206001015f9054906101000a900460ff16600181111561042357610422610740565b5b14610463576040517f08c379a000000000000000000000000000000000000000000000000000000000815260040161045a90610a40565b60405180910390fd5b6001805f8381526020019081526020015f206001015f6101000a81548160ff0219169083600181111561049957610498610740565b5b02179055503360015f8381526020019081526020015f2060010160016101000a81548173ffffffffffffffffffffffffffffffffffffffff021916908373ffffffffffffffffffffffffffffffffffffffff1602179055507f01c20c71bd4d120fd6510a06e8d824fd5d687b292a5bf957cc9e3e54e8d3b60481336040516105229291906109a9565b60405180910390a150565b5f8054906101000a900473ffffffffffffffffffffffffffffffffffffffff1681565b60605f8060015f8581526020019081526020015f205f0160015f8681526020019081526020015f206001015f9054906101000a900460ff1660015f8781526020019081526020015f2060010160019054906101000a900473ffffffffffffffffffffffffffffffffffffffff168280546105c990610874565b80601f01602080910402602001604051908101604052809291908181526020018280546105f590610874565b80156106405780601f1061061757610100808354040283529160200191610640565b820191905f5260205f20905b81548152906001019060200180831161062357829003601f168201915b505050505092509250925092509193909250565b5f80fd5b5f819050919050565b61066a81610658565b8114610674575f80fd5b50565b5f8135905061068581610661565b92915050565b5f602082840312156106a05761069f610654565b5b5f6106ad84828501610677565b91505092915050565b5f81519050919050565b5f82825260208201905092915050565b5f5b838110156106ed5780820151818401526020810190506106d2565b5f8484015250505050565b5f601f19601f8301169050919050565b5f610712826106b6565b61071c81856106c0565b935061072c8185602086016106d0565b610735816106f8565b840191505092915050565b7f4e487b71000000000000000000000000000000000000000000000000000000005f52602160045260245ffd5b6002811061077e5761077d610740565b5b50565b5f81905061078e8261076d565b919050565b5f61079d82610781565b9050919050565b6107ad81610793565b82525050565b5f73ffffffffffffffffffffffffffffffffffffffff82169050919050565b5f6107dc826107b3565b9050919050565b6107ec816107d2565b82525050565b5f6060820190508181035f83015261080a8186610708565b905061081960208301856107a4565b61082660408301846107e3565b949350505050565b5f6020820190506108415f8301846107e3565b92915050565b7f4e487b71000000000000000000000000000000000000000000000000000000005f52602260045260245ffd5b5f600282049050600182168061088b57607f821691505b60208210810361089e5761089d610847565b5b50919050565b7f456c207069736f206e6f206573746120616c7175696c61646f2e0000000000005f82015250565b5f6108d8601a836106c0565b91506108e3826108a4565b602082019050919050565b5f6020820190508181035f830152610905816108cc565b9050919050565b7f536f6c6f20656c20696e7175696c696e6f2061637475616c20707565646520645f8201527f65766f6c76657220656c207069736f2e00000000000000000000000000000000602082015250565b5f6109666030836106c0565b91506109718261090c565b604082019050919050565b5f6020820190508181035f8301526109938161095a565b9050919050565b6109a381610658565b82525050565b5f6040820190506109bc5f83018561099a565b6109c960208301846107e3565b9392505050565b7f456c207069736f206e6f206573746120646973706f6e69626c652070617261205f8201527f616c7175696c61722e0000000000000000000000000000000000000000000000602082015250565b5f610a2a6029836106c0565b9150610a35826109d0565b604082019050919050565b5f6020820190508181035f830152610a5781610a1e565b905091905056fea26469706673582212209a9180f650df372d28da4fdd1a2719731c959f726537cbc3bff21572938279d864736f6c63430008150033",
  "immutableReferences": {},
  "source": "// SPDX-License-Identifier: MIT\r\npragma solidity >=0.7.0 <0.9.0;\r\n\r\ncontract AlquileresPisos {\r\n    address public owner;\r\n\r\n    enum Estado {Disponible, Alquilado}\r\n\r\n    // Estructura para almacenar informacin de un piso\r\n    struct Piso {\r\n        string direccion;\r\n        Estado estado;\r\n        address inquilino;\r\n    }\r\n\r\n    mapping(uint256 => Piso) public pisos;\r\n\r\n    event PisoAlquilado(uint256 id, address inquilino);\r\n    event PisoDevuelto(uint256 id, address inquilino);\r\n\r\n    constructor() {\r\n        owner = msg.sender;\r\n        pisos[0] = Piso(\"Avda America 45\", Estado.Disponible, address(0));\r\n        pisos[1] = Piso(\"Atocha, 87, 4B\", Estado.Disponible, address(0));\r\n        pisos[2] = Piso(\"C/ Luna, 98 7A\", Estado.Disponible, address(0));\r\n    }\r\n\r\n    modifier soloOwner() {\r\n        require(msg.sender == owner, \"Solo el propietario puede realizar esta accion.\");\r\n        _;\r\n    }\r\n\r\n    function alquilarPiso(uint256 id) public {\r\n        require(pisos[id].estado == Estado.Disponible, \"El piso no esta disponible para alquilar.\");\r\n        pisos[id].estado = Estado.Alquilado;\r\n        pisos[id].inquilino = msg.sender;\r\n\r\n        emit PisoAlquilado(id, msg.sender);\r\n    }\r\n\r\n    function devolverPiso(uint256 id) public {\r\n        require(pisos[id].estado == Estado.Alquilado, \"El piso no esta alquilado.\");\r\n        require(pisos[id].inquilino == msg.sender, \"Solo el inquilino actual puede devolver el piso.\");\r\n\r\n        pisos[id].estado = Estado.Disponible;\r\n        pisos[id].inquilino = address(0);\r\n\r\n        emit PisoDevuelto(id, msg.sender);\r\n    }\r\n\r\n    function consultarPiso(uint256 id) public view returns (string memory, Estado, address) {\r\n        return (pisos[id].direccion, pisos[id].estado, pisos[id].inquilino);\r\n    }\r\n}\r\n",
  "sourcePath": "D:\\cursos\\2024_Blockchain Octubre\\practicas\\contracts\\AlquileresPisos.sol",
  "compiler": {
    "name": "solc",
    "version": "0.8.21+commit.d9974bed.Emscripten.clang"
  },
  "schemaVersion": "3.4.16",
  "updatedAt": "2024-12-08T01:32:42.308Z",
  "networkType": "ethereum",
  "devdoc": {
    "kind": "dev",
    "methods": {},
    "version": 1
  },
  "userdoc": {
    "kind": "user",
    "methods": {},
    "version": 1
  }
}