{
  "contractName": "PrestamoPortatiles",
  "abi": [
    {
      "inputs": [],
      "name": "owner",
      "outputs": [
        {
          "internalType": "address",
          "name": "",
          "type": "address"
        }
      ],
      "stateMutability": "view",
      "type": "function"
    },
    {
      "inputs": [
        {
          "internalType": "uint256",
          "name": "",
          "type": "uint256"
        }
      ],
      "name": "portatiles",
      "outputs": [
        {
          "internalType": "string",
          "name": "modeloPortatil",
          "type": "string"
        },
        {
          "internalType": "enum PrestamoPortatiles.Estado",
          "name": "estadoPortatil",
          "type": "uint8"
        },
        {
          "internalType": "address",
          "name": "prestadoA",
          "type": "address"
        }
      ],
      "stateMutability": "view",
      "type": "function"
    }
  ],
  "bytecode": "0x608060405234801561000f575f80fd5b506104098061001d5f395ff3fe608060405234801561000f575f80fd5b5060043610610034575f3560e01c80638da5cb5b14610038578063d65c14a814610056575b5f80fd5b610040610088565b60405161004d91906101c2565b60405180910390f35b610070600480360381019061006b9190610212565b6100ab565b60405161007f9392919061033a565b60405180910390f35b5f8054906101000a900473ffffffffffffffffffffffffffffffffffffffff1681565b6001602052805f5260405f205f91509050805f0180546100ca906103a3565b80601f01602080910402602001604051908101604052809291908181526020018280546100f6906103a3565b80156101415780601f1061011857610100808354040283529160200191610141565b820191905f5260205f20905b81548152906001019060200180831161012457829003601f168201915b505050505090806001015f9054906101000a900460ff16908060010160019054906101000a900473ffffffffffffffffffffffffffffffffffffffff16905083565b5f73ffffffffffffffffffffffffffffffffffffffff82169050919050565b5f6101ac82610183565b9050919050565b6101bc816101a2565b82525050565b5f6020820190506101d55f8301846101b3565b92915050565b5f80fd5b5f819050919050565b6101f1816101df565b81146101fb575f80fd5b50565b5f8135905061020c816101e8565b92915050565b5f60208284031215610227576102266101db565b5b5f610234848285016101fe565b91505092915050565b5f81519050919050565b5f82825260208201905092915050565b5f5b83811015610274578082015181840152602081019050610259565b5f8484015250505050565b5f601f19601f8301169050919050565b5f6102998261023d565b6102a38185610247565b93506102b3818560208601610257565b6102bc8161027f565b840191505092915050565b7f4e487b71000000000000000000000000000000000000000000000000000000005f52602160045260245ffd5b60028110610305576103046102c7565b5b50565b5f819050610315826102f4565b919050565b5f61032482610308565b9050919050565b6103348161031a565b82525050565b5f6060820190508181035f830152610352818661028f565b9050610361602083018561032b565b61036e60408301846101b3565b949350505050565b7f4e487b71000000000000000000000000000000000000000000000000000000005f52602260045260245ffd5b5f60028204905060018216806103ba57607f821691505b6020821081036103cd576103cc610376565b5b5091905056fea26469706673582212203bfdb0c4f7dabff308102435a9979a5f435698532aa6e4a30619cf70652e686464736f6c63430008150033",
  "immutableReferences": {},
  "source": "// SPDX-License-Identifier: MIT\r\npragma solidity >=0.7.0 <0.9.0;\r\n\r\ncontract PrestamoPortatiles{\r\n    address public owner;\r\n\r\n    enum Estado {Disponible, Prestado}\r\n\r\n    struct Portatil{\r\n        string modeloPortatil;\r\n        Estado estadoPortatil;\r\n        address prestadoA;\r\n    }\r\n\r\n    mapping (uint256 => Portatil) public portatiles;\r\n}",
  "sourcePath": "D:\\cursos\\2024_Blockchain Octubre\\practicas\\contracts\\PrestamoPortatiles.sol",
  "compiler": {
    "name": "solc",
    "version": "0.8.21+commit.d9974bed.Emscripten.clang"
  },
  "schemaVersion": "3.4.16",
  "updatedAt": "2024-12-07T21:40:32.181Z",
  "devdoc": {
    "kind": "dev",
    "methods": {},
    "version": 1
  },
  "userdoc": {
    "kind": "user",
    "methods": {},
    "version": 1
  }
}