{
  "contractName": "PrestamoPortatiles",
  "abi": [
    {
      "inputs": [],
      "stateMutability": "nonpayable",
      "type": "constructor"
    },
    {
      "anonymous": false,
      "inputs": [
        {
          "indexed": false,
          "internalType": "uint256",
          "name": "id",
          "type": "uint256"
        }
      ],
      "name": "portatilDevuelto",
      "type": "event"
    },
    {
      "anonymous": false,
      "inputs": [
        {
          "indexed": false,
          "internalType": "uint256",
          "name": "id",
          "type": "uint256"
        }
      ],
      "name": "portatilEliminado",
      "type": "event"
    },
    {
      "anonymous": false,
      "inputs": [
        {
          "indexed": false,
          "internalType": "uint256",
          "name": "id",
          "type": "uint256"
        },
        {
          "indexed": false,
          "internalType": "address",
          "name": "prestadoA",
          "type": "address"
        }
      ],
      "name": "portatilPrestado",
      "type": "event"
    },
    {
      "inputs": [],
      "name": "owner",
      "outputs": [
        {
          "internalType": "address",
          "name": "",
          "type": "address"
        }
      ],
      "stateMutability": "view",
      "type": "function"
    },
    {
      "inputs": [
        {
          "internalType": "uint256",
          "name": "",
          "type": "uint256"
        }
      ],
      "name": "portatiles",
      "outputs": [
        {
          "internalType": "string",
          "name": "modeloPortatil",
          "type": "string"
        },
        {
          "internalType": "enum PrestamoPortatiles.Estado",
          "name": "estadoPortatil",
          "type": "uint8"
        },
        {
          "internalType": "address",
          "name": "prestadoA",
          "type": "address"
        }
      ],
      "stateMutability": "view",
      "type": "function"
    },
    {
      "inputs": [
        {
          "internalType": "uint256",
          "name": "id",
          "type": "uint256"
        }
      ],
      "name": "prestarPortatil",
      "outputs": [],
      "stateMutability": "nonpayable",
      "type": "function"
    },
    {
      "inputs": [
        {
          "internalType": "uint256",
          "name": "id",
          "type": "uint256"
        }
      ],
      "name": "devolverPortatil",
      "outputs": [],
      "stateMutability": "nonpayable",
      "type": "function"
    },
    {
      "inputs": [
        {
          "internalType": "uint256",
          "name": "id",
          "type": "uint256"
        }
      ],
      "name": "consultarEstadoPortatil",
      "outputs": [
        {
          "internalType": "enum PrestamoPortatiles.Estado",
          "name": "",
          "type": "uint8"
        }
      ],
      "stateMutability": "view",
      "type": "function"
    },
    {
      "inputs": [
        {
          "internalType": "uint256",
          "name": "id",
          "type": "uint256"
        },
        {
          "internalType": "string",
          "name": "modelo",
          "type": "string"
        }
      ],
      "name": "agregarPortatil",
      "outputs": [],
      "stateMutability": "nonpayable",
      "type": "function"
    },
    {
      "inputs": [
        {
          "internalType": "uint256",
          "name": "id",
          "type": "uint256"
        }
      ],
      "name": "eliminarPortatil",
      "outputs": [],
      "stateMutability": "nonpayable",
      "type": "function"
    }
  ],
  "bytecode": "0x608060405234801562000010575f80fd5b50335f806101000a81548173ffffffffffffffffffffffffffffffffffffffff021916908373ffffffffffffffffffffffffffffffffffffffff16021790555060405180606001604052806040518060400160405280600c81526020017f4c656e6f766f205449433031000000000000000000000000000000000000000081525081526020015f6001811115620000ac57620000ab620005f0565b5b81526020015f73ffffffffffffffffffffffffffffffffffffffff1681525060015f8081526020019081526020015f205f820151815f019081620000f1919062000881565b506020820151816001015f6101000a81548160ff021916908360018111156200011f576200011e620005f0565b5b021790555060408201518160010160016101000a81548173ffffffffffffffffffffffffffffffffffffffff021916908373ffffffffffffffffffffffffffffffffffffffff16021790555090505060405180606001604052806040518060400160405280600881526020017f485020544943303200000000000000000000000000000000000000000000000081525081526020015f6001811115620001ca57620001c9620005f0565b5b81526020015f73ffffffffffffffffffffffffffffffffffffffff1681525060015f600181526020019081526020015f205f820151815f01908162000210919062000881565b506020820151816001015f6101000a81548160ff021916908360018111156200023e576200023d620005f0565b5b021790555060408201518160010160016101000a81548173ffffffffffffffffffffffffffffffffffffffff021916908373ffffffffffffffffffffffffffffffffffffffff16021790555090505060405180606001604052806040518060400160405280600c81526020017f4c656e6f766f205449433033000000000000000000000000000000000000000081525081526020015f6001811115620002e957620002e8620005f0565b5b81526020015f73ffffffffffffffffffffffffffffffffffffffff1681525060015f600281526020019081526020015f205f820151815f0190816200032f919062000881565b506020820151816001015f6101000a81548160ff021916908360018111156200035d576200035c620005f0565b5b021790555060408201518160010160016101000a81548173ffffffffffffffffffffffffffffffffffffffff021916908373ffffffffffffffffffffffffffffffffffffffff16021790555090505060405180606001604052806040518060400160405280600981526020017f54544c205449433034000000000000000000000000000000000000000000000081525081526020015f6001811115620004085762000407620005f0565b5b81526020015f73ffffffffffffffffffffffffffffffffffffffff1681525060015f600381526020019081526020015f205f820151815f0190816200044e919062000881565b506020820151816001015f6101000a81548160ff021916908360018111156200047c576200047b620005f0565b5b021790555060408201518160010160016101000a81548173ffffffffffffffffffffffffffffffffffffffff021916908373ffffffffffffffffffffffffffffffffffffffff16021790555090505060405180606001604052806040518060400160405280600881526020017f54544c544943303500000000000000000000000000000000000000000000000081525081526020015f6001811115620005275762000526620005f0565b5b81526020015f73ffffffffffffffffffffffffffffffffffffffff1681525060015f600481526020019081526020015f205f820151815f0190816200056d919062000881565b506020820151816001015f6101000a81548160ff021916908360018111156200059b576200059a620005f0565b5b021790555060408201518160010160016101000a81548173ffffffffffffffffffffffffffffffffffffffff021916908373ffffffffffffffffffffffffffffffffffffffff16021790555090505062000965565b7f4e487b71000000000000000000000000000000000000000000000000000000005f52602160045260245ffd5b5f81519050919050565b7f4e487b71000000000000000000000000000000000000000000000000000000005f52604160045260245ffd5b7f4e487b71000000000000000000000000000000000000000000000000000000005f52602260045260245ffd5b5f60028204905060018216806200069957607f821691505b602082108103620006af57620006ae62000654565b5b50919050565b5f819050815f5260205f209050919050565b5f6020601f8301049050919050565b5f82821b905092915050565b5f60088302620007137fffffffffffffffffffffffffffffffffffffffffffffffffffffffffffffffff82620006d6565b6200071f8683620006d6565b95508019841693508086168417925050509392505050565b5f819050919050565b5f819050919050565b5f62000769620007636200075d8462000737565b62000740565b62000737565b9050919050565b5f819050919050565b620007848362000749565b6200079c620007938262000770565b848454620006e2565b825550505050565b5f90565b620007b2620007a4565b620007bf81848462000779565b505050565b5b81811015620007e657620007da5f82620007a8565b600181019050620007c5565b5050565b601f8211156200083557620007ff81620006b5565b6200080a84620006c7565b810160208510156200081a578190505b620008326200082985620006c7565b830182620007c4565b50505b505050565b5f82821c905092915050565b5f620008575f19846008026200083a565b1980831691505092915050565b5f62000871838362000846565b9150826002028217905092915050565b6200088c826200061d565b67ffffffffffffffff811115620008a857620008a762000627565b5b620008b4825462000681565b620008c1828285620007ea565b5f60209050601f831160018114620008f7575f8415620008e2578287015190505b620008ee858262000864565b8655506200095d565b601f1984166200090786620006b5565b5f5b82811015620009305784890151825560018201915060208501945060208101905062000909565b868310156200095057848901516200094c601f89168262000846565b8355505b6001600288020188555050505b505050505050565b6113c380620009735f395ff3fe608060405234801561000f575f80fd5b506004361061007b575f3560e01c80638da5cb5b116100595780638da5cb5b146100d3578063a055df2c146100f1578063ac16036914610121578063d65c14a81461013d5761007b565b806309c443521461007f57806313aec0861461009b5780631f81f083146100b7575b5f80fd5b610099600480360381019061009491906109c6565b61016f565b005b6100b560048036038101906100b091906109c6565b6102bf565b005b6100d160048036038101906100cc9190610b2d565b6104af565b005b6100db610682565b6040516100e89190610bc6565b60405180910390f35b61010b600480360381019061010691906109c6565b6106a5565b6040516101189190610c52565b60405180910390f35b61013b600480360381019061013691906109c6565b6106ce565b005b610157600480360381019061015291906109c6565b610852565b60405161016693929190610ce5565b60405180910390f35b5f600181111561018257610181610bdf565b5b60015f8381526020019081526020015f206001015f9054906101000a900460ff1660018111156101b5576101b4610bdf565b5b146101f5576040517f08c379a00000000000000000000000000000000000000000000000000000000081526004016101ec90610d91565b60405180910390fd5b6001805f8381526020019081526020015f206001015f6101000a81548160ff0219169083600181111561022b5761022a610bdf565b5b02179055503360015f8381526020019081526020015f2060010160016101000a81548173ffffffffffffffffffffffffffffffffffffffff021916908373ffffffffffffffffffffffffffffffffffffffff1602179055507fcc0ddb0de120005cefb1467272fc2562f43b59238667b8e0955607700751621681336040516102b4929190610dbe565b60405180910390a150565b6001808111156102d2576102d1610bdf565b5b60015f8381526020019081526020015f206001015f9054906101000a900460ff16600181111561030557610304610bdf565b5b14610345576040517f08c379a000000000000000000000000000000000000000000000000000000000815260040161033c90610e55565b60405180910390fd5b3373ffffffffffffffffffffffffffffffffffffffff1660015f8381526020019081526020015f2060010160019054906101000a900473ffffffffffffffffffffffffffffffffffffffff1673ffffffffffffffffffffffffffffffffffffffff16146103e7576040517f08c379a00000000000000000000000000000000000000000000000000000000081526004016103de90610ee3565b60405180910390fd5b5f60015f8381526020019081526020015f206001015f6101000a81548160ff0219169083600181111561041d5761041c610bdf565b5b02179055505f60015f8381526020019081526020015f2060010160016101000a81548173ffffffffffffffffffffffffffffffffffffffff021916908373ffffffffffffffffffffffffffffffffffffffff1602179055507f74049c70fa59ece5df7dad68429e183ec958012d172a86db879f395313b29cd8816040516104a49190610f01565b60405180910390a150565b5f8054906101000a900473ffffffffffffffffffffffffffffffffffffffff1673ffffffffffffffffffffffffffffffffffffffff163373ffffffffffffffffffffffffffffffffffffffff161461053c576040517f08c379a000000000000000000000000000000000000000000000000000000000815260040161053390610fb0565b60405180910390fd5b5f60015f8481526020019081526020015f205f01805461055b90610ffb565b90501461059d576040517f08c379a000000000000000000000000000000000000000000000000000000000815260040161059490611075565b60405180910390fd5b60405180606001604052808281526020015f60018111156105c1576105c0610bdf565b5b81526020015f73ffffffffffffffffffffffffffffffffffffffff1681525060015f8481526020019081526020015f205f820151815f0190816106049190611230565b506020820151816001015f6101000a81548160ff0219169083600181111561062f5761062e610bdf565b5b021790555060408201518160010160016101000a81548173ffffffffffffffffffffffffffffffffffffffff021916908373ffffffffffffffffffffffffffffffffffffffff1602179055509050505050565b5f8054906101000a900473ffffffffffffffffffffffffffffffffffffffff1681565b5f60015f8381526020019081526020015f206001015f9054906101000a900460ff169050919050565b5f8054906101000a900473ffffffffffffffffffffffffffffffffffffffff1673ffffffffffffffffffffffffffffffffffffffff163373ffffffffffffffffffffffffffffffffffffffff161461075b576040517f08c379a000000000000000000000000000000000000000000000000000000000815260040161075290610fb0565b60405180910390fd5b5f60015f8381526020019081526020015f205f01805461077a90610ffb565b9050036107bc576040517f08c379a00000000000000000000000000000000000000000000000000000000081526004016107b39061136f565b60405180910390fd5b60015f8281526020019081526020015f205f8082015f6107dc919061092a565b600182015f6101000a81549060ff02191690556001820160016101000a81549073ffffffffffffffffffffffffffffffffffffffff021916905550507fbbf5296cb822014573b299a43d649a196809de4025eb2689916bb883bb003354816040516108479190610f01565b60405180910390a150565b6001602052805f5260405f205f91509050805f01805461087190610ffb565b80601f016020809104026020016040519081016040528092919081815260200182805461089d90610ffb565b80156108e85780601f106108bf576101008083540402835291602001916108e8565b820191905f5260205f20905b8154815290600101906020018083116108cb57829003601f168201915b505050505090806001015f9054906101000a900460ff16908060010160019054906101000a900473ffffffffffffffffffffffffffffffffffffffff16905083565b50805461093690610ffb565b5f825580601f106109475750610964565b601f0160209004905f5260205f20908101906109639190610967565b5b50565b5b8082111561097e575f815f905550600101610968565b5090565b5f604051905090565b5f80fd5b5f80fd5b5f819050919050565b6109a581610993565b81146109af575f80fd5b50565b5f813590506109c08161099c565b92915050565b5f602082840312156109db576109da61098b565b5b5f6109e8848285016109b2565b91505092915050565b5f80fd5b5f80fd5b5f601f19601f8301169050919050565b7f4e487b71000000000000000000000000000000000000000000000000000000005f52604160045260245ffd5b610a3f826109f9565b810181811067ffffffffffffffff82111715610a5e57610a5d610a09565b5b80604052505050565b5f610a70610982565b9050610a7c8282610a36565b919050565b5f67ffffffffffffffff821115610a9b57610a9a610a09565b5b610aa4826109f9565b9050602081019050919050565b828183375f83830152505050565b5f610ad1610acc84610a81565b610a67565b905082815260208101848484011115610aed57610aec6109f5565b5b610af8848285610ab1565b509392505050565b5f82601f830112610b1457610b136109f1565b5b8135610b24848260208601610abf565b91505092915050565b5f8060408385031215610b4357610b4261098b565b5b5f610b50858286016109b2565b925050602083013567ffffffffffffffff811115610b7157610b7061098f565b5b610b7d85828601610b00565b9150509250929050565b5f73ffffffffffffffffffffffffffffffffffffffff82169050919050565b5f610bb082610b87565b9050919050565b610bc081610ba6565b82525050565b5f602082019050610bd95f830184610bb7565b92915050565b7f4e487b71000000000000000000000000000000000000000000000000000000005f52602160045260245ffd5b60028110610c1d57610c1c610bdf565b5b50565b5f819050610c2d82610c0c565b919050565b5f610c3c82610c20565b9050919050565b610c4c81610c32565b82525050565b5f602082019050610c655f830184610c43565b92915050565b5f81519050919050565b5f82825260208201905092915050565b5f5b83811015610ca2578082015181840152602081019050610c87565b5f8484015250505050565b5f610cb782610c6b565b610cc18185610c75565b9350610cd1818560208601610c85565b610cda816109f9565b840191505092915050565b5f6060820190508181035f830152610cfd8186610cad565b9050610d0c6020830185610c43565b610d196040830184610bb7565b949350505050565b7f456c20706f7274c3a174696c206e6f20657374c3a120646973706f6e69626c655f8201527f2070617261207072c3a97374616d6f0000000000000000000000000000000000602082015250565b5f610d7b602f83610c75565b9150610d8682610d21565b604082019050919050565b5f6020820190508181035f830152610da881610d6f565b9050919050565b610db881610993565b82525050565b5f604082019050610dd15f830185610daf565b610dde6020830184610bb7565b9392505050565b7f456c20706f7274c3a174696c206e6f20657374c3a120707265737461646f2c205f8201527f6e6f207365207075656465206465766f6c766572000000000000000000000000602082015250565b5f610e3f603483610c75565b9150610e4a82610de5565b604082019050919050565b5f6020820190508181035f830152610e6c81610e33565b9050919050565b7f536f6c6f20656c207573756172696f2071756520636f6769c3b320656c20706f5f8201527f7274c3a174696c2c206c6f207075656465206465766f6c766572000000000000602082015250565b5f610ecd603a83610c75565b9150610ed882610e73565b604082019050919050565b5f6020820190508181035f830152610efa81610ec1565b9050919050565b5f602082019050610f145f830184610daf565b92915050565b7f536f6c6f20656c2070726f706965746172696f2064656c20736d61727420636f5f8201527f6e7472616374207075656465207265616c697a617220657374612061636369c360208201527fb36e2064652061c3b16164697220706f72746174696c00000000000000000000604082015250565b5f610f9a605683610c75565b9150610fa582610f1a565b606082019050919050565b5f6020820190508181035f830152610fc781610f8e565b9050919050565b7f4e487b71000000000000000000000000000000000000000000000000000000005f52602260045260245ffd5b5f600282049050600182168061101257607f821691505b60208210810361102557611024610fce565b5b50919050565b7f456c20494420796120657374c3a120656e2075736f00000000000000000000005f82015250565b5f61105f601583610c75565b915061106a8261102b565b602082019050919050565b5f6020820190508181035f83015261108c81611053565b9050919050565b5f819050815f5260205f209050919050565b5f6020601f8301049050919050565b5f82821b905092915050565b5f600883026110ef7fffffffffffffffffffffffffffffffffffffffffffffffffffffffffffffffff826110b4565b6110f986836110b4565b95508019841693508086168417925050509392505050565b5f819050919050565b5f61113461112f61112a84610993565b611111565b610993565b9050919050565b5f819050919050565b61114d8361111a565b6111616111598261113b565b8484546110c0565b825550505050565b5f90565b611175611169565b611180818484611144565b505050565b5b818110156111a3576111985f8261116d565b600181019050611186565b5050565b601f8211156111e8576111b981611093565b6111c2846110a5565b810160208510156111d1578190505b6111e56111dd856110a5565b830182611185565b50505b505050565b5f82821c905092915050565b5f6112085f19846008026111ed565b1980831691505092915050565b5f61122083836111f9565b9150826002028217905092915050565b61123982610c6b565b67ffffffffffffffff81111561125257611251610a09565b5b61125c8254610ffb565b6112678282856111a7565b5f60209050601f831160018114611298575f8415611286578287015190505b6112908582611215565b8655506112f7565b601f1984166112a686611093565b5f5b828110156112cd578489015182556001820191506020850194506020810190506112a8565b868310156112ea57848901516112e6601f8916826111f9565b8355505b6001600288020188555050505b505050505050565b7f456c20706f7274c3a174696c206e6f20657869737465206f20796120667565205f8201527f656c696d696e61646f0000000000000000000000000000000000000000000000602082015250565b5f611359602983610c75565b9150611364826112ff565b604082019050919050565b5f6020820190508181035f8301526113868161134d565b905091905056fea2646970667358221220f54d314ecb1fc4d9776d5f60f6a7771860740a534a6a77f10c17536c676f3e2764736f6c63430008150033",
  "immutableReferences": {},
  "source": "// SPDX-License-Identifier: MIT\r\npragma solidity >=0.7.0 <0.9.0;\r\n\r\ncontract PrestamoPortatiles{\r\n    address public owner;\r\n\r\n    enum Estado {Disponible, Prestado}\r\n\r\n    struct Portatil{\r\n        string modeloPortatil;\r\n        Estado estadoPortatil;\r\n        address prestadoA;\r\n    }\r\n\r\n    mapping (uint256 => Portatil) public portatiles;\r\n\r\n    event portatilPrestado (uint256 id, address prestadoA);\r\n    event portatilDevuelto (uint256 id);\r\n    event portatilEliminado (uint256 id);\r\n\r\n    constructor () {\r\n        owner = msg.sender; //la persona que est desplegando el smart contract en la blockchain\r\n        portatiles[0] = Portatil(\"Lenovo TIC01\", Estado.Disponible, address(0));\r\n        portatiles[1] = Portatil(\"HP TIC02\", Estado.Disponible, address(0));\r\n        portatiles[2] = Portatil(\"Lenovo TIC03\", Estado.Disponible, address(0));\r\n        portatiles[3] = Portatil(\"TTL TIC04\", Estado.Disponible, address(0));\r\n        portatiles[4] = Portatil(\"TTLTIC05\", Estado.Disponible, address(0));\r\n    }\r\n\r\n    function prestarPortatil (uint256 id) public{\r\n        require (portatiles[id].estadoPortatil == Estado.Disponible, unicode\"El porttil no est disponible para prstamo\");\r\n        portatiles[id].estadoPortatil = Estado.Prestado;\r\n        portatiles[id].prestadoA = msg.sender;\r\n        emit portatilPrestado(id, msg.sender);\r\n    }\r\n\r\n    function devolverPortatil (uint256 id) public{\r\n        //comprobacin de que el porttil est prestado\r\n        require (portatiles[id].estadoPortatil == Estado.Prestado, unicode\"El porttil no est prestado, no se puede devolver\");\r\n        //Indicar que nicamente el profesor/a que ha cogido el porttil, el que lo devuelva\r\n        require (portatiles[id].prestadoA == msg.sender, unicode\"Solo el usuario que cogi el porttil, lo puede devolver\");\r\n        portatiles[id].estadoPortatil = Estado.Disponible;\r\n        portatiles[id].prestadoA = address(0);\r\n        emit portatilDevuelto(id);\r\n    }\r\n\r\n    function consultarEstadoPortatil (uint256 id) public view returns (Estado){\r\n        return portatiles[id].estadoPortatil;\r\n    }\r\n\r\n    //modifier establece una condicin previa a la ejecucin de una funcin\r\n    modifier soloOwner(){\r\n        require (msg.sender == owner, unicode\"Solo el propietario del smart contract puede realizar esta accin de aadir portatil\");\r\n        //esta lnea es sustituida por el cuerpo de la funcin que incorpora este modifier\r\n        _; \r\n    }\r\n\r\n    function agregarPortatil(uint256 id, string memory modelo) public soloOwner{\r\n        require(bytes(portatiles[id].modeloPortatil).length == 0, unicode\"El ID ya est en uso\");\r\n        portatiles[id] = Portatil(modelo, Estado.Disponible, address(0));\r\n    }\r\n\r\n    function eliminarPortatil(uint256 id) public soloOwner{\r\n        require(bytes(portatiles[id].modeloPortatil).length != 0, unicode\"El porttil no existe o ya fue eliminado\");\r\n        delete portatiles[id];\r\n        emit portatilEliminado(id);\r\n    }\r\n}",
  "sourcePath": "D:\\cursos\\2024_Blockchain Octubre\\practicas\\contracts\\PrestamoPortatiles.sol",
  "compiler": {
    "name": "solc",
    "version": "0.8.21+commit.d9974bed.Emscripten.clang"
  },
  "schemaVersion": "3.4.16",
  "updatedAt": "2024-12-08T01:32:42.243Z",
  "networkType": "ethereum",
  "devdoc": {
    "kind": "dev",
    "methods": {},
    "version": 1
  },
  "userdoc": {
    "kind": "user",
    "methods": {},
    "version": 1
  }
}